{
  "contractName": "Edublocks",
  "abi": [
    {
      "constant": false,
      "inputs": [
        {
          "internalType": "string",
          "name": "n",
          "type": "string"
        },
        {
          "internalType": "string",
          "name": "pass",
          "type": "string"
        }
      ],
      "name": "addStudent",
      "outputs": [],
      "payable": false,
      "stateMutability": "nonpayable",
      "type": "function"
    },
    {
      "constant": false,
      "inputs": [
        {
          "internalType": "string",
          "name": "n",
          "type": "string"
        },
        {
          "internalType": "string",
          "name": "pass",
          "type": "string"
        }
      ],
      "name": "addEducator",
      "outputs": [],
      "payable": false,
      "stateMutability": "nonpayable",
      "type": "function"
    },
    {
      "constant": true,
      "inputs": [
        {
          "internalType": "string",
          "name": "n",
          "type": "string"
        },
        {
          "internalType": "string",
          "name": "p",
          "type": "string"
        }
      ],
      "name": "studentLogin",
      "outputs": [
        {
          "internalType": "int256",
          "name": "",
          "type": "int256"
        },
        {
          "internalType": "bool",
          "name": "",
          "type": "bool"
        }
      ],
      "payable": false,
      "stateMutability": "view",
      "type": "function"
    },
    {
      "constant": true,
      "inputs": [
        {
          "internalType": "string",
          "name": "n",
          "type": "string"
        },
        {
          "internalType": "string",
          "name": "p",
          "type": "string"
        }
      ],
      "name": "educatorLogin",
      "outputs": [
        {
          "internalType": "int256",
          "name": "",
          "type": "int256"
        },
        {
          "internalType": "bool",
          "name": "",
          "type": "bool"
        }
      ],
      "payable": false,
      "stateMutability": "view",
      "type": "function"
    },
    {
      "constant": false,
      "inputs": [
        {
          "internalType": "string",
          "name": "n",
          "type": "string"
        },
        {
          "internalType": "string",
          "name": "desc",
          "type": "string"
        },
        {
          "internalType": "string",
          "name": "auth",
          "type": "string"
        },
        {
          "internalType": "int256",
          "name": "p",
          "type": "int256"
        },
        {
          "internalType": "int256",
          "name": "d",
          "type": "int256"
        },
        {
          "internalType": "int256",
          "name": "e_id",
          "type": "int256"
        }
      ],
      "name": "addCourse",
      "outputs": [],
      "payable": false,
      "stateMutability": "nonpayable",
      "type": "function"
    },
    {
      "constant": false,
      "inputs": [
        {
          "internalType": "int256",
          "name": "s_id",
          "type": "int256"
        },
        {
          "internalType": "int256",
          "name": "c_id",
          "type": "int256"
        },
        {
          "internalType": "int256",
          "name": "_time",
          "type": "int256"
        },
        {
          "internalType": "int256",
          "name": "e_id",
          "type": "int256"
        }
      ],
      "name": "buyCourse",
      "outputs": [],
      "payable": false,
      "stateMutability": "nonpayable",
      "type": "function"
    },
    {
      "constant": false,
      "inputs": [
        {
          "internalType": "int256",
          "name": "s_id",
          "type": "int256"
        },
        {
          "internalType": "int256",
          "name": "c_id",
          "type": "int256"
        },
        {
          "internalType": "int256",
          "name": "_m",
          "type": "int256"
        }
      ],
      "name": "reviewAssignment",
      "outputs": [],
      "payable": false,
      "stateMutability": "nonpayable",
      "type": "function"
    },
    {
      "constant": false,
      "inputs": [
        {
          "internalType": "int256",
          "name": "s_id",
          "type": "int256"
        },
        {
          "internalType": "int256",
          "name": "c_id",
          "type": "int256"
        },
        {
          "internalType": "int256",
          "name": "_time",
          "type": "int256"
        }
      ],
      "name": "submitAssignment",
      "outputs": [
        {
          "internalType": "bool",
          "name": "",
          "type": "bool"
        }
      ],
      "payable": false,
      "stateMutability": "nonpayable",
      "type": "function"
    },
    {
      "constant": true,
      "inputs": [
        {
          "internalType": "int256",
          "name": "_id",
          "type": "int256"
        }
      ],
      "name": "getCourse",
      "outputs": [
        {
          "components": [
            {
              "internalType": "int256",
              "name": "id",
              "type": "int256"
            },
            {
              "internalType": "string",
              "name": "name",
              "type": "string"
            },
            {
              "internalType": "string",
              "name": "description",
              "type": "string"
            },
            {
              "internalType": "string",
              "name": "author_name",
              "type": "string"
            },
            {
              "internalType": "int256",
              "name": "author_id",
              "type": "int256"
            },
            {
              "internalType": "int256",
              "name": "price",
              "type": "int256"
            },
            {
              "internalType": "int256",
              "name": "users",
              "type": "int256"
            },
            {
              "internalType": "int256",
              "name": "deadline",
              "type": "int256"
            }
          ],
          "internalType": "struct Edublocks.Course",
          "name": "",
          "type": "tuple"
        }
      ],
      "payable": false,
      "stateMutability": "view",
      "type": "function"
    },
    {
      "constant": true,
      "inputs": [
        {
          "internalType": "int256",
          "name": "_id",
          "type": "int256"
        }
      ],
      "name": "getStudent",
      "outputs": [
        {
          "components": [
            {
              "internalType": "int256",
              "name": "id",
              "type": "int256"
            },
            {
              "internalType": "string",
              "name": "user_name",
              "type": "string"
            },
            {
              "internalType": "string",
              "name": "password",
              "type": "string"
            },
            {
              "internalType": "int256",
              "name": "balance",
              "type": "int256"
            },
            {
              "internalType": "int256[]",
              "name": "courses_id",
              "type": "int256[]"
            },
            {
              "internalType": "int256[]",
              "name": "courses_deadline",
              "type": "int256[]"
            },
            {
              "internalType": "int256[]",
              "name": "marks",
              "type": "int256[]"
            }
          ],
          "internalType": "struct Edublocks.Student",
          "name": "",
          "type": "tuple"
        }
      ],
      "payable": false,
      "stateMutability": "view",
      "type": "function"
    },
    {
      "constant": true,
      "inputs": [
        {
          "internalType": "int256",
          "name": "_id",
          "type": "int256"
        }
      ],
      "name": "getEducator",
      "outputs": [
        {
          "components": [
            {
              "internalType": "int256",
              "name": "id",
              "type": "int256"
            },
            {
              "internalType": "string",
              "name": "user_name",
              "type": "string"
            },
            {
              "internalType": "string",
              "name": "password",
              "type": "string"
            },
            {
              "internalType": "int256",
              "name": "balance",
              "type": "int256"
            },
            {
              "internalType": "int256[]",
              "name": "courses_id",
              "type": "int256[]"
            }
          ],
          "internalType": "struct Edublocks.Educator",
          "name": "",
          "type": "tuple"
        }
      ],
      "payable": false,
      "stateMutability": "view",
      "type": "function"
    },
    {
      "constant": true,
      "inputs": [],
      "name": "getCourseCount",
      "outputs": [
        {
          "internalType": "int256",
          "name": "",
          "type": "int256"
        }
      ],
      "payable": false,
      "stateMutability": "view",
      "type": "function"
    }
  ],
  "bytecode": "0x608060405234801561001057600080fd5b5061241c806100206000396000f3fe608060405234801561001057600080fd5b50600436106100b45760003560e01c8063c419f65b11610071578063c419f65b1461018c578063c839e9b5146101bd578063ce54417d146101ed578063d34b78981461021d578063e27bb1f71461024d578063e812eaa414610269576100b4565b80630fc70461146100b9578063163072e8146100d55780631b1fc4b6146100f15780638b24119b1461010d5780638db09d521461013d57806396cfda061461016e575b600080fd5b6100d360048036036100ce9190810190611a0a565b610285565b005b6100ef60048036036100ea9190810190611a76565b61046f565b005b61010b60048036036101069190810190611958565b610677565b005b61012760048036036101229190810190611958565b610884565b60405161013491906120ca565b60405180910390f35b61015760048036036101529190810190611a0a565b610a02565b604051610165929190612100565b60405180910390f35b610176610bd9565b60405161018391906120e5565b60405180910390f35b6101a660048036036101a19190810190611a0a565b610be3565b6040516101b4929190612100565b60405180910390f35b6101d760048036036101d2919081019061192f565b610d2d565b6040516101e49190612209565b60405180910390f35b6102076004803603610202919081019061192f565b610f73565b604051610214919061224d565b60405180910390f35b6102376004803603610232919081019061192f565b611200565b604051610244919061222b565b60405180910390f35b61026760048036036102629190810190611a0a565b6113dd565b005b610283600480360361027e91908101906119a7565b61156a565b005b600660003373ffffffffffffffffffffffffffffffffffffffff1673ffffffffffffffffffffffffffffffffffffffff16815260200190815260200160002060009054906101000a900460ff1615610312576040517f08c379a0000000000000000000000000000000000000000000000000000000008152600401610309906121e9565b60405180910390fd5b6001600081548092919060010191905055506001546004600060015481526020019081526020016000206000018190555081600460006001548152602001908152602001600020600101908051906020019061036f929190611770565b5080600460006001548152602001908152602001600020600201908051906020019061039c929190611770565b506000600460006001548152602001908152602001600020600301819055506001600660003373ffffffffffffffffffffffffffffffffffffffff1673ffffffffffffffffffffffffffffffffffffffff16815260200190815260200160002060006101000a81548160ff0219169083151502179055506001600760003373ffffffffffffffffffffffffffffffffffffffff1673ffffffffffffffffffffffffffffffffffffffff16815260200190815260200160002060006101000a81548160ff0219169083151502179055505050565b600760003373ffffffffffffffffffffffffffffffffffffffff1673ffffffffffffffffffffffffffffffffffffffff16815260200190815260200160002060009054906101000a900460ff166104fb576040517f08c379a00000000000000000000000000000000000000000000000000000000081526004016104f290612189565b60405180910390fd5b60026000815480929190600101919050555060025460056000600254815260200190815260200160002060000181905550856005600060025481526020019081526020016000206001019080519060200190610558929190611770565b50846005600060025481526020019081526020016000206002019080519060200190610585929190611770565b508360056000600254815260200190815260200160002060030190805190602001906105b2929190611770565b508060056000600254815260200190815260200160002060040181905550826005600060025481526020019081526020016000206005018190555060006005600060025481526020019081526020016000206006018190555062015180820260056000600254815260200190815260200160002060070181905550600460008281526020019081526020016000206004016002549080600181540180825580915050906001820390600052602060002001600090919290919091505550505050505050565b600760003373ffffffffffffffffffffffffffffffffffffffff1673ffffffffffffffffffffffffffffffffffffffff16815260200190815260200160002060009054906101000a900460ff16610703576040517f08c379a00000000000000000000000000000000000000000000000000000000081526004016106fa906121a9565b60405180910390fd5b60006003600085815260200190815260200160002060040180549050905060008090505b818110156107a0578360036000878152602001908152602001600020600401828154811061075157fe5b90600052602060002001541415610793578260036000878152602001908152602001600020600601828154811061078457fe5b90600052602060002001819055505b8080600101915050610727565b50605a82126107d357600a600360008681526020019081526020016000206003016000828254019250508190555061087e565b60508212610805576005600360008681526020019081526020016000206003016000828254019250508190555061087d565b60468212610837576002600360008681526020019081526020016000206003016000828254019250508190555061087c565b602882121561087b576040517f08c379a000000000000000000000000000000000000000000000000000000000815260040161087290612169565b60405180910390fd5b5b5b5b50505050565b6000600760003373ffffffffffffffffffffffffffffffffffffffff1673ffffffffffffffffffffffffffffffffffffffff16815260200190815260200160002060009054906101000a900460ff1615610913576040517f08c379a000000000000000000000000000000000000000000000000000000000815260040161090a90612129565b60405180910390fd5b60006003600086815260200190815260200160002060040180549050905060008090505b818110156109f8578460036000888152602001908152602001600020600401828154811061096157fe5b906000526020600020015414156109eb5760036000878152602001908152602001600020600501818154811061099357fe5b906000526020600020015484136109af576001925050506109fb565b60006003600088815260200190815260200160002060060182815481106109d257fe5b90600052602060002001819055506000925050506109fb565b8080600101915050610937565b50505b9392505050565b600080600760003373ffffffffffffffffffffffffffffffffffffffff1673ffffffffffffffffffffffffffffffffffffffff16815260200190815260200160002060009054906101000a900460ff1615610a92576040517f08c379a0000000000000000000000000000000000000000000000000000000008152600401610a8990612149565b60405180910390fd5b600080905060008090505b6000548113610b9a5785604051602001610ab7919061209c565b6040516020818303038152906040528051906020012060036000838152602001908152602001600020600101604051602001610af391906120b3565b60405160208183030381529060405280519060200120148015610b76575084604051602001610b22919061209c565b6040516020818303038152906040528051906020012060036000838152602001908152602001600020600201604051602001610b5e91906120b3565b60405160208183030381529060405280519060200120145b15610b8d5760019150806001935093505050610bd2565b8080600101915050610a9d565b5080610bd0577fffffffffffffffffffffffffffffffffffffffffffffffffffffffffffffffff60008191509250925050610bd2565b505b9250929050565b6000600254905090565b600080600080905060008090505b6001548113610cee5785604051602001610c0b919061209c565b6040516020818303038152906040528051906020012060046000838152602001908152602001600020600101604051602001610c4791906120b3565b60405160208183030381529060405280519060200120148015610cca575084604051602001610c76919061209c565b6040516020818303038152906040528051906020012060046000838152602001908152602001600020600201604051602001610cb291906120b3565b60405160208183030381529060405280519060200120145b15610ce15760019150806001935093505050610d26565b8080600101915050610bf1565b5080610d24577fffffffffffffffffffffffffffffffffffffffffffffffffffffffffffffffff60008191509250925050610d26565b505b9250929050565b610d356117f0565b600560008381526020019081526020016000206040518061010001604052908160008201548152602001600182018054600181600116156101000203166002900480601f016020809104026020016040519081016040528092919081815260200182805460018160011615610100020316600290048015610df75780601f10610dcc57610100808354040283529160200191610df7565b820191906000526020600020905b815481529060010190602001808311610dda57829003601f168201915b50505050508152602001600282018054600181600116156101000203166002900480601f016020809104026020016040519081016040528092919081815260200182805460018160011615610100020316600290048015610e995780601f10610e6e57610100808354040283529160200191610e99565b820191906000526020600020905b815481529060010190602001808311610e7c57829003601f168201915b50505050508152602001600382018054600181600116156101000203166002900480601f016020809104026020016040519081016040528092919081815260200182805460018160011615610100020316600290048015610f3b5780601f10610f1057610100808354040283529160200191610f3b565b820191906000526020600020905b815481529060010190602001808311610f1e57829003601f168201915b505050505081526020016004820154815260200160058201548152602001600682015481526020016007820154815250509050919050565b610f7b611835565b600360008381526020019081526020016000206040518060e001604052908160008201548152602001600182018054600181600116156101000203166002900480601f01602080910402602001604051908101604052809291908181526020018280546001816001161561010002031660029004801561103c5780601f106110115761010080835404028352916020019161103c565b820191906000526020600020905b81548152906001019060200180831161101f57829003601f168201915b50505050508152602001600282018054600181600116156101000203166002900480601f0160208091040260200160405190810160405280929190818152602001828054600181600116156101000203166002900480156110de5780601f106110b3576101008083540402835291602001916110de565b820191906000526020600020905b8154815290600101906020018083116110c157829003601f168201915b50505050508152602001600382015481526020016004820180548060200260200160405190810160405280929190818152602001828054801561114057602002820191906000526020600020905b81548152602001906001019080831161112c575b505050505081526020016005820180548060200260200160405190810160405280929190818152602001828054801561119857602002820191906000526020600020905b815481526020019060010190808311611184575b50505050508152602001600682018054806020026020016040519081016040528092919081815260200182805480156111f057602002820191906000526020600020905b8154815260200190600101908083116111dc575b5050505050815250509050919050565b611208611872565b600460008381526020019081526020016000206040518060a001604052908160008201548152602001600182018054600181600116156101000203166002900480601f0160208091040260200160405190810160405280929190818152602001828054600181600116156101000203166002900480156112c95780601f1061129e576101008083540402835291602001916112c9565b820191906000526020600020905b8154815290600101906020018083116112ac57829003601f168201915b50505050508152602001600282018054600181600116156101000203166002900480601f01602080910402602001604051908101604052809291908181526020018280546001816001161561010002031660029004801561136b5780601f106113405761010080835404028352916020019161136b565b820191906000526020600020905b81548152906001019060200180831161134e57829003601f168201915b5050505050815260200160038201548152602001600482018054806020026020016040519081016040528092919081815260200182805480156113cd57602002820191906000526020600020905b8154815260200190600101908083116113b9575b5050505050815250509050919050565b600660003373ffffffffffffffffffffffffffffffffffffffff1673ffffffffffffffffffffffffffffffffffffffff16815260200190815260200160002060009054906101000a900460ff161561146a576040517f08c379a0000000000000000000000000000000000000000000000000000000008152600401611461906121e9565b60405180910390fd5b600080815480929190600101919050555060005460036000805481526020019081526020016000206000018190555081600360008054815260200190815260200160002060010190805190602001906114c4929190611770565b5080600360008054815260200190815260200160002060020190805190602001906114f0929190611770565b5060006003600080548152602001908152602001600020600301819055506001600660003373ffffffffffffffffffffffffffffffffffffffff1673ffffffffffffffffffffffffffffffffffffffff16815260200190815260200160002060006101000a81548160ff0219169083151502179055505050565b600760003373ffffffffffffffffffffffffffffffffffffffff1673ffffffffffffffffffffffffffffffffffffffff16815260200190815260200160002060009054906101000a900460ff16156115f7576040517f08c379a00000000000000000000000000000000000000000000000000000000081526004016115ee906121c9565b60405180910390fd5b600560008481526020019081526020016000206006016000815480929190600101919050555060036000858152602001908152602001600020600401839080600181540180825580915050906001820390600052602060002001600090919290919091505550600360008581526020019081526020016000206005018260056000868152602001908152602001600020600701540190806001815401808255809150509060018203906000526020600020016000909192909190915055506005600084815260200190815260200160002060050154600360008681526020019081526020016000206003016000828254039250508190555060056000848152602001908152602001600020600501546004600083815260200190815260200160002060030160008282540192505081905550600360008581526020019081526020016000206006016000908060018154018082558091505090600182039060005260206000200160009091929091909150555050505050565b828054600181600116156101000203166002900490600052602060002090601f016020900481019282601f106117b157805160ff19168380011785556117df565b828001600101855582156117df579182015b828111156117de5782518255916020019190600101906117c3565b5b5090506117ec91906118a1565b5090565b60405180610100016040528060008152602001606081526020016060815260200160608152602001600081526020016000815260200160008152602001600081525090565b6040518060e00160405280600081526020016060815260200160608152602001600081526020016060815260200160608152602001606081525090565b6040518060a0016040528060008152602001606081526020016060815260200160008152602001606081525090565b6118c391905b808211156118bf5760008160009055506001016118a7565b5090565b90565b6000813590506118d5816123c2565b92915050565b600082601f8301126118ec57600080fd5b81356118ff6118fa8261229c565b61226f565b9150808252602083016020830185838301111561191b57600080fd5b61192683828461236f565b50505092915050565b60006020828403121561194157600080fd5b600061194f848285016118c6565b91505092915050565b60008060006060848603121561196d57600080fd5b600061197b868287016118c6565b935050602061198c868287016118c6565b925050604061199d868287016118c6565b9150509250925092565b600080600080608085870312156119bd57600080fd5b60006119cb878288016118c6565b94505060206119dc878288016118c6565b93505060406119ed878288016118c6565b92505060606119fe878288016118c6565b91505092959194509250565b60008060408385031215611a1d57600080fd5b600083013567ffffffffffffffff811115611a3757600080fd5b611a43858286016118db565b925050602083013567ffffffffffffffff811115611a6057600080fd5b611a6c858286016118db565b9150509250929050565b60008060008060008060c08789031215611a8f57600080fd5b600087013567ffffffffffffffff811115611aa957600080fd5b611ab589828a016118db565b965050602087013567ffffffffffffffff811115611ad257600080fd5b611ade89828a016118db565b955050604087013567ffffffffffffffff811115611afb57600080fd5b611b0789828a016118db565b9450506060611b1889828a016118c6565b9350506080611b2989828a016118c6565b92505060a0611b3a89828a016118c6565b9150509295509295509295565b6000611b538383611bcc565b60208301905092915050565b6000611b6a826122ed565b611b74818561231b565b9350611b7f836122c8565b8060005b83811015611bb0578151611b978882611b47565b9750611ba28361230e565b925050600181019050611b83565b5085935050505092915050565b611bc681612359565b82525050565b611bd581612365565b82525050565b611be481612365565b82525050565b6000611bf582612303565b611bff818561234e565b9350611c0f81856020860161237e565b80840191505092915050565b6000611c26826122f8565b611c30818561232c565b9350611c4081856020860161237e565b611c49816123b1565b840191505092915050565b600081546001811660008114611c715760018114611c9657611cda565b607f6002830416611c82818761234e565b955060ff1983168652808601935050611cda565b60028204611ca4818761234e565b9550611caf856122d8565b60005b82811015611cd157815481890152600182019150602081019050611cb2565b82880195505050505b505092915050565b6000611cef601f8361233d565b91507f4e6f7420617574686f72697a656420746f207375626d697420636f75727365006000830152602082019050919050565b6000611d2f60178361233d565b91507f43616e6e6f74206c6f67696e2061732053747564656e740000000000000000006000830152602082019050919050565b6000611d6f60178361233d565b91507f536f7272792c20796f752068617665206661696c65642e0000000000000000006000830152602082019050919050565b6000611daf601c8361233d565b91507f4e6f7420617574686f72697a656420746f2061646420636f75727365000000006000830152602082019050919050565b6000611def601f8361233d565b91507f4e6f7420617574686f72697a656420746f2072657669657720636f75727365006000830152602082019050919050565b6000611e2f601c8361233d565b91507f4e6f7420617574686f72697a656420746f2062757920636f75727365000000006000830152602082019050919050565b6000611e6f601b8361233d565b91507f4164647265737320616c726561647920686173206163636f756e7400000000006000830152602082019050919050565b600061010083016000830151611ebb6000860182611bcc565b5060208301518482036020860152611ed38282611c1b565b91505060408301518482036040860152611eed8282611c1b565b91505060608301518482036060860152611f078282611c1b565b9150506080830151611f1c6080860182611bcc565b5060a0830151611f2f60a0860182611bcc565b5060c0830151611f4260c0860182611bcc565b5060e0830151611f5560e0860182611bcc565b508091505092915050565b600060a083016000830151611f786000860182611bcc565b5060208301518482036020860152611f908282611c1b565b91505060408301518482036040860152611faa8282611c1b565b9150506060830151611fbf6060860182611bcc565b5060808301518482036080860152611fd78282611b5f565b9150508091505092915050565b600060e083016000830151611ffc6000860182611bcc565b50602083015184820360208601526120148282611c1b565b9150506040830151848203604086015261202e8282611c1b565b91505060608301516120436060860182611bcc565b506080830151848203608086015261205b8282611b5f565b91505060a083015184820360a08601526120758282611b5f565b91505060c083015184820360c086015261208f8282611b5f565b9150508091505092915050565b60006120a88284611bea565b915081905092915050565b60006120bf8284611c54565b915081905092915050565b60006020820190506120df6000830184611bbd565b92915050565b60006020820190506120fa6000830184611bdb565b92915050565b60006040820190506121156000830185611bdb565b6121226020830184611bbd565b9392505050565b6000602082019050818103600083015261214281611ce2565b9050919050565b6000602082019050818103600083015261216281611d22565b9050919050565b6000602082019050818103600083015261218281611d62565b9050919050565b600060208201905081810360008301526121a281611da2565b9050919050565b600060208201905081810360008301526121c281611de2565b9050919050565b600060208201905081810360008301526121e281611e22565b9050919050565b6000602082019050818103600083015261220281611e62565b9050919050565b600060208201905081810360008301526122238184611ea2565b905092915050565b600060208201905081810360008301526122458184611f60565b905092915050565b600060208201905081810360008301526122678184611fe4565b905092915050565b6000604051905081810181811067ffffffffffffffff8211171561229257600080fd5b8060405250919050565b600067ffffffffffffffff8211156122b357600080fd5b601f19601f8301169050602081019050919050565b6000819050602082019050919050565b60008190508160005260206000209050919050565b600081519050919050565b600081519050919050565b600081519050919050565b6000602082019050919050565b600082825260208201905092915050565b600082825260208201905092915050565b600082825260208201905092915050565b600081905092915050565b60008115159050919050565b6000819050919050565b82818337600083830152505050565b60005b8381101561239c578082015181840152602081019050612381565b838111156123ab576000848401525b50505050565b6000601f19601f8301169050919050565b6123cb81612365565b81146123d657600080fd5b5056fea365627a7a72315820c6393d346b71cea58505d37d2353b761a56ea622a52ff321beb3aa773b18ba1b6c6578706572696d656e74616cf564736f6c63430005100040",
  "source": "pragma solidity >=0.4.22 <0.8.0;\r\npragma experimental ABIEncoderV2;\r\n\r\ncontract Edublocks {\r\n    struct Student {\r\n        int256 id;\r\n        string user_name;\r\n        string password;\r\n        int256 balance;\r\n        int256[] courses_id;\r\n        int256[] courses_deadline;\r\n        int256[] marks;\r\n    }\r\n    struct Educator {\r\n        int256 id;\r\n        string user_name;\r\n        string password;\r\n        int256 balance;\r\n        int256[] courses_id;\r\n    }\r\n    struct Course {\r\n        int256 id;\r\n        string name;\r\n        string description;\r\n        string author_name;\r\n        int256 author_id;\r\n        int256 price;\r\n        int256 users;\r\n        int256 deadline;\r\n    }\r\n\r\n    int256 studentCount;\r\n    int256 educatorCount;\r\n    int256 courseCount;\r\n\r\n    mapping(int256 => Student) students;\r\n    mapping(int256 => Educator) educators;\r\n    mapping(int256 => Course) courses;\r\n    mapping(address => bool) hasAccount;\r\n    mapping(address => bool) isEducator;\r\n\r\n    function addStudent(string memory n, string memory pass) public {\r\n        require(!hasAccount[msg.sender], \"Address already has account\");\r\n        studentCount++;\r\n        students[studentCount].id = studentCount;\r\n        students[studentCount].user_name = n;\r\n        students[studentCount].password = pass;\r\n        students[studentCount].balance = 0;\r\n        hasAccount[msg.sender] = true;\r\n    }\r\n\r\n    function addEducator(string memory n, string memory pass) public {\r\n        require(!hasAccount[msg.sender], \"Address already has account\");\r\n        educatorCount++;\r\n        educators[educatorCount].id = educatorCount;\r\n        educators[educatorCount].user_name = n;\r\n        educators[educatorCount].password = pass;\r\n        educators[educatorCount].balance = 0;\r\n        hasAccount[msg.sender] = true;\r\n        isEducator[msg.sender] = true; // set the account as an Educator\r\n    }\r\n\r\n    function studentLogin(string memory n, string memory p)\r\n        public\r\n        view\r\n        returns (int256, bool)\r\n    {\r\n        require(!isEducator[msg.sender], \"Cannot login as Student\"); //check if it's a student account\r\n        bool found = false;\r\n        for (int256 i = 0; i <= studentCount; i++) {\r\n            if (\r\n                keccak256(abi.encodePacked(students[i].user_name)) ==\r\n                keccak256(abi.encodePacked(n)) &&\r\n                keccak256(abi.encodePacked(students[i].password)) ==\r\n                keccak256(abi.encodePacked(p))\r\n            ) {\r\n                found = true;\r\n                return (i, true);\r\n            }\r\n        }\r\n        if (!found) {\r\n            return (-1, false);\r\n        }\r\n    }\r\n\r\n    function educatorLogin(string memory n, string memory p)\r\n        public\r\n        view\r\n        returns (int256, bool)\r\n    {\r\n        // require(isEducator[msg.sender], \"Cannot login as Eeucator\"); //check if it's an Educator account\r\n        bool found = false;\r\n        for (int256 i = 0; i <= educatorCount; i++) {\r\n            if (\r\n                keccak256(abi.encodePacked(educators[i].user_name)) ==\r\n                keccak256(abi.encodePacked(n)) &&\r\n                keccak256(abi.encodePacked(educators[i].password)) ==\r\n                keccak256(abi.encodePacked(p))\r\n            ) {\r\n                found = true;\r\n                return (i, true);\r\n            }\r\n        }\r\n        if (!found) {\r\n            return (-1, false);\r\n        }\r\n    }\r\n\r\n    function addCourse(\r\n        string memory n,\r\n        string memory desc,\r\n        string memory auth,\r\n        int256 p,\r\n        int256 d,\r\n        int256 e_id\r\n    ) public {\r\n        require(isEducator[msg.sender], \"Not authorized to add course\"); //check if it's an Educator account\r\n        courseCount++;\r\n        courses[courseCount].id = courseCount;\r\n        courses[courseCount].name = n;\r\n        courses[courseCount].description = desc;\r\n        courses[courseCount].author_name = auth;\r\n        courses[courseCount].author_id = e_id;\r\n        courses[courseCount].price = p;\r\n        courses[courseCount].users = 0;\r\n        courses[courseCount].deadline = d * 1 days;\r\n        //adding course ID to educator struct\r\n        educators[e_id].courses_id.push(courseCount);\r\n    }\r\n\r\n    function buyCourse(\r\n        int256 s_id,\r\n        int256 c_id,\r\n        int256 _time,\r\n        int256 e_id\r\n    ) public {\r\n        require(!isEducator[msg.sender], \"Not authorized to buy course\"); //check if it's a Student account\r\n        courses[c_id].users++;\r\n        students[s_id].courses_id.push(c_id);\r\n        students[s_id].courses_deadline.push(courses[c_id].deadline + _time);\r\n        students[s_id].balance -= courses[c_id].price; //deducting student balance\r\n        educators[e_id].balance += courses[c_id].price; //payment for educator\r\n        students[s_id].marks.push(0); //initializing marks for course\r\n    }\r\n\r\n    function reviewAssignment(\r\n        int256 s_id,\r\n        int256 c_id,\r\n        int256 _m\r\n    ) public {\r\n        require(isEducator[msg.sender], \"Not authorized to review course\"); //only educator can review assignments\r\n        uint256 totalCourses = students[s_id].courses_id.length;\r\n        for (uint256 i = 0; i < totalCourses; i++) {\r\n            if (students[s_id].courses_id[i] == c_id) {\r\n                students[s_id].marks[i] = _m;\r\n            }\r\n        }\r\n        if (_m >= 90) {\r\n            students[s_id].balance += 10;\r\n        } else if (_m >= 80) {\r\n            students[s_id].balance += 5;\r\n        } else if (_m >= 70) {\r\n            students[s_id].balance += 2;\r\n        } else if (_m < 40) {\r\n            revert(\"Sorry, you have failed.\");\r\n        }\r\n    }\r\n\r\n    function submitAssignment(\r\n        int256 s_id,\r\n        int256 c_id,\r\n        int256 _time\r\n    ) public returns (bool) {\r\n        require(!isEducator[msg.sender], \"Not authorized to submit course\"); //check if it's a Student account\r\n        uint256 totalCourses = students[s_id].courses_id.length;\r\n        for (uint256 i = 0; i < totalCourses; i++) {\r\n            if (students[s_id].courses_id[i] == c_id) {\r\n                if (_time <= students[s_id].courses_deadline[i]) {\r\n                    return (true);\r\n                }\r\n                //if deadline passed,set marks=0\r\n                else {\r\n                    students[s_id].marks[i] = 0;\r\n                    return (false);\r\n                }\r\n            }\r\n        }\r\n    }\r\n\r\n    function getCourse(int256 _id) public view returns (Course memory) {\r\n        return (courses[_id]);\r\n    }\r\n\r\n    function getStudent(int256 _id) public view returns (Student memory) {\r\n        return (students[_id]);\r\n    }\r\n\r\n    function getEducator(int256 _id) public view returns (Educator memory) {\r\n        return (educators[_id]);\r\n    }\r\n\r\n    function getCourseCount() public view returns (int256) {\r\n        return (courseCount);\r\n    }\r\n}\r\n",
  "sourcePath": "C:/Kevin's Stuff/React/EduBlocks/contracts/Edublocks.sol",
  "compiler": {
    "name": "solc",
    "version": "0.5.16+commit.9c3226ce.Emscripten.clang"
  },
  "schemaVersion": "3.3.3",
  "updatedAt": "2021-06-17T00:04:39.088Z",
  "networkType": "ethereum",
  "devdoc": {
    "methods": {}
  },
  "userdoc": {
    "methods": {}
  }
}